:100000000C9465000C948D000C948D000C948D0064
:100010000C948D000C948D000C948D000C948D002C
:100020000C948D000C94BF030C948D000C948D00E7
:100030000C948D000C948D000C948D000C948D000C
:100040000C9421090C948D000C948D000C948D005F
:100050000C948D000C948D000C948D000C948D00EC
:100060000C948D000C948D0000000007000201002C
:100070000003040600000000000000000102040864
:100080001020408001020408102001020408102002
:10009000040404040404040402020202020203032E
:1000A00003030303000000002300260029000000D2
:1000B0000000250028002B0000000000240027007D
:1000C0002A00DB015708F3015B0811241FBECFEFA4
:1000D000D8E0DEBFCDBF13E0A6E0B1E001C01D92C5
:1000E000AF3DB107E1F711E0A0E0B1E0E2E5FAE1F0
:1000F00002C005900D92A630B107D9F710E0C6EC0A
:10010000D0E004C02297FE010E94B60BC23CD1078A
:10011000C9F70E94B8090C941C0D0C94000080E3F0
:1001200091E00E9432038AED91E00E94320384E85C
:1001300092E00E9432038EE293E00C9432038EE24E
:1001400093E00E94370384E892E00E9437038AED2F
:1001500091E00E94370380E391E00E94370361E061
:1001600084E00C9489080F931F9368537F4F8F4F3F
:100170009F4F41E050E0009120011091210120911A
:10018000220130912301061717072807390710F0BD
:1001900040E050E0CA011F910F910895EF92FF9245
:1001A0000F931F93CF93DF9360911C0170911D01FA
:1001B00080911E0190911F010E94B300EC01909369
:1001C0000F0180930E0160911801709119018091C7
:1001D0001A0190911B010E94B3008C0190930D01B4
:1001E00080930C01609114017091150180911601AA
:1001F000909117010E94B3007C0190930B018093B2
:100200000A01609110017091110180911201909189
:1002100013010E94B3009093090180930801C00F5D
:10022000D11FCE0DDF1DC80FD91F21E030E023976D
:1002300014F420E030E0C901DF91CF911F910F91BC
:10024000FF90EF9008950E946B09609320017093D6
:100250002101809322019093230162E273E08EE2F8
:1002600093E00E940008892B09F18091240390916A
:100270002503A0912603B09127038A3D9E4BAF4FE3
:10028000BF4F81F48091200190912101A091220122
:10029000B091230180931C0190931D01A0931E0136
:1002A000B0931F018EE293E00E94FF0368E772E0C3
:1002B00084E892E00E940008892B09F180917A027B
:1002C00090917B02A0917C02B0917D028A3D9E4B71
:1002D000AF4FBF4F81F48091200190912101A091F7
:1002E0002201B09123018093180190931901A093EA
:1002F0001A01B0931B0184E892E00E94FF036EECA8
:1003000071E08AED91E00E940008892B09F180914B
:10031000D0019091D101A091D201B091D3018A3D39
:100320009E4BAF4FBF4F81F48091200190912101EE
:10033000A0912201B09123018093140190931501A3
:10034000A0931601B09317018AED91E00E94FF037C
:1003500064E271E080E391E00E940008892B09F1DA
:100360008091260190912701A0912801B091290147
:100370008A3D9E4BAF4FBF4F81F4809120019091F9
:100380002101A0912201B09123018093100190934B
:100390001101A0931201B093130180E391E00E9438
:1003A000FF030E94CE008093060190930701682FFF
:1003B00084E00C94C10860E070E08EE293E00E945B
:1003C000260363E070E084E892E00E94260365E083
:1003D00070E08AED91E00E94260366E070E080E321
:1003E00091E00C9426030C948F00CF93DF93EC01E3
:1003F0001982188284E090E09B838A8388E090E0F1
:100400000E94BA0B8C839D83FC0188E0DF011D9262
:100410008A95E9F7DF91CF910895FC018481958158
:100420000C94550CAF92BF92CF92DF92EF92FF9255
:100430000F931F93CF93DF93EC01EA80FB80E616C6
:10044000F70604F5EE0CFF1CAC80BD808701000FA1
:10045000111FC8010E94BA0B6C01A80160E070E096
:100460000E94FA0C2A813B81220F331FA901B5019A
:10047000C6010E94F10CC5010E94550CFB82EA8264
:10048000CC82DD82DF91CF911F910F91FF90EF9091
:10049000DF90CF90BF90AF900895BF92CF92DF9240
:1004A000EF92FF920F931F93CF93DF93EC017B01A9
:1004B00077FD47C0C880D9806C157D050CF041C020
:1004C000CC0CDD1CC6010E94BA0BB92E082F192FC7
:1004D0006C817D81A6010E94F10C88819981880F31
:1004E000991FAC0160E070E08C819D810E94FA0C44
:1004F0006701CC0CDD1CA601602F7B2D8C819D81BA
:100500000E94F10CAC81BD81AC0DBD1D28813981EB
:100510002E193F0921503109220F331FF70131965F
:10052000EE0FFF1FE00FF11FA901BF01CD010E94D7
:10053000F10CC8010E94550C88819981019799831B
:100540008883DF91CF911F910F91FF90EF90DF9003
:10055000CF90BF900895FC0180819181089577FD2F
:1005600012C0DC012D913C911197621773075CF466
:10057000660F771F1496ED91FC911597E60FF71F04
:100580002081318102C020E030E0C9010895CF937D
:10059000DF93EC014881598120E030E010C0D9019F
:1005A000AA0FBB1FEC01EC81FD81EA0FFB1F01903C
:1005B000F081E02D6E177F0739F02F5F3F4F241732
:1005C00035076CF32FEF3FEFC901DF91CF9108950D
:1005D0000E94C70221E0019609F420E0822F0895CD
:1005E000CF92DF92EF92FF920F931F93CF93DF93FF
:1005F000EC018B010E94E802811114C0C880D980EF
:1006000076018FEFE81AF80AB701CE010E941202B4
:10061000CC0CDD1CEC81FD81EC0DFD1D11830083F4
:10062000F982E882DF91CF911F910F91FF90EF90B7
:10063000DF90CF900895CF93DF93EC010E94C70223
:10064000BC01CE01DF91CF910C944D022EE9FC014B
:1006500011922A95E9F7FC016083BC018CEC93E0D0
:100660000C94F002BC018CEC93E00C941B031092F0
:10067000B000E1EBF0E020812B7F2083208122601D
:10068000208320812E7F2083E0E7F0E0208121601D
:1006900020832DE32093B200789422E0FC01218393
:1006A000E356FF4F108260E0FC0180810C948908C2
:1006B000CF93DF93EC0188810E94F8082B813C8165
:1006C0002F5F3F4F3C832B83FE01E356FF4F90810A
:1006D0009C3410F045E0498349814330B9F020F45F
:1006E000423009F041C005C0443011F14530E1F518
:1006F00037C0811139C02233310508F433C03E833D
:100700002D83FE01E356FF4F91E01FC0813061F55C
:10071000FE01E90FF11DE90FF11D36832583FE016E
:10072000E356FF4F9F5F90831C821B8294E016C0AC
:10073000811110C0FE01E90FF11DE90FF11D368393
:100740002583FE01E356FF4F9F5F90831C821B822F
:1007500093E004C02333310538F095E0998304C059
:10076000811102C01C821B829A81992329F0811178
:1007700002C02D9A01C02D98DF91CF9108951F924C
:100780000F920FB60F9211240F931F932F933F9345
:100790004F935F936F937F938F939F93AF93BF9389
:1007A000CF93DF93EF93FF938DE38093B2008CECB4
:1007B00093E00E94AB028C01C0E0D0E008C0BE0113
:1007C0008CEC93E00E94AF020E9458032196C01760
:1007D000D107ACF3FF91EF91DF91CF91BF91AF9132
:1007E0009F918F917F916F915F914F913F912F9149
:1007F0001F910F910F900FBE0F901F90189522E040
:10080000FC012183E356FF4F108208950F931F933D
:10081000CF93DF93EB01E885F9852281338124347E
:10082000310508F486C0228133812337310508F071
:1008300080C051C084819581409708F47AC084813A
:1008400095814C9708F075C086819781049708F4CC
:1008500070C0868197810A9708F448C06AC0848175
:100860009581819708F465C084819581C99708F0C6
:1008700060C08F010A5F1F4F23E030E080E090E00E
:10088000DC01F801408151814430510508F451C028
:10089000408151814A30510508F04BC039C0F80100
:1008A000628173816431710508F447C03BC0FA016D
:1008B000408151814730510508F445C03AC02E5F50
:1008C0003F4F0C5F1F4F23343105D9F620E230E053
:1008D0003F832E8310C0DC01A356BF4F8C91843020
:1008E00009F4A8CF843408F0BACF23C01F821E8237
:1008F0008FEF9FEFDC018A839B83AC83BD8381E014
:1009000090E09983888301E010E020E030E020C08F
:10091000A8014E5F5F4FF801628173816B307105F2
:1009200008F0BDCFFA01608171816330710508F074
:10093000BECF00E010E098010BC0880F991FAA1FDE
:10094000BB1F8160BCCF880F991FAA1FBB1FB7CFE9
:10095000B801C901DF91CF911F910F910895EF92D6
:10096000FF920F931F93CF93DF937B0183569F4F8B
:10097000DC016C916A3108F465C0E701E885F9850E
:1009800082819381429708F45DC08281938181972F
:1009900008F058C0369622E030E080E090E0DC01BC
:1009A00070E027C0EF0122970881198103301105FB
:1009B00058F42150310935952795F701378326835F
:1009C0002C3031050CF51CC0488159814830510547
:1009D00080F727C0408151814231510540F12DC03F
:1009E000408151814A30510588F12CC02E5F3F4F24
:1009F0003496A9014F5F5F4F461757079CF2D9CF36
:100A0000F701178216821EC082839383A483B58365
:100A100082E090E09183808301E010E020E030E00C
:100A20001AC04081518149305105A0F606C0880F97
:100A3000991FAA1FBB1F8160D9CF408151814530CA
:100A4000510570F600E010E0980105C0880F991F6D
:100A5000AA1FBB1FCBCFB801C901DF91CF911F9156
:100A60000F91FF90EF9008952F923F924F925F92D7
:100A70006F927F92AF92BF92CF92DF92EF92FF92EE
:100A80000F931F93CF93DF936A015901DA01CD9140
:100A9000DC91FB0182859385C817D9070CF0DBC078
:100AA000CE01880F991F0084F185E02DE80FF91F12
:100AB000E080F180C170DD27F1E0CF27209721F49D
:100AC00034E6632E712C04C02CE9622E77247A94CC
:100AD000B801660D771D882777FD8095982F0E94B5
:100AE000C50A1B012C0120E030E040E45FE30E94D6
:100AF000510B20E030E048EC52E40E942A0A0E94A8
:100B0000920AE616F706D4F020E030E040EA5FE310
:100B1000C201B1010E94510B20E030E048EC52E4E8
:100B20000E942A0A20E030E040E85FE30E94C60904
:100B30000E94920A6E157F050CF074C0B801660F12
:100B4000771F660D771D882777FD8095982F0E9467
:100B5000C50A1B012C0120E030E040E45FE30E9465
:100B6000510B20E030E048EC52E40E942A0A0E9437
:100B7000920AE616F706D4F020E030E040EA5FE3A0
:100B8000C201B1010E94510B20E030E048EC52E478
:100B90000E942A0A20E030E040E85FE30E94C60994
:100BA0000E94920A6E157F050CF03FC0B801660FD7
:100BB000771F600F711F660D771D882777FD809561
:100BC000982F0E94C50A2B013C0120E030E040E450
:100BD0005FE30E94510B20E030E048EC52E40E94B9
:100BE0002A0A0E94920AE616F706C4F120E030E0D5
:100BF00040EA5FE3C301B2010E94510B20E030E004
:100C000048EC52E40E942A0A20E030E040E85FE32A
:100C10000E94C6090E94920A6E157F05FCF023E02F
:100C200030E005C021E030E002C022E030E0D50134
:100C30008D919C9111970196821793070CF408C02F
:100C4000F50111821082D6018D919C911197019628
:100C50008D939C9305C0C1E0D0E002C0CFEFDFEFE1
:100C6000CE01DF91CF911F910F91FF90EF90DF9018
:100C7000CF90BF90AF907F906F905F904F903F90DC
:100C80002F9008952F923F924F925F926F927F9292
:100C90008F929F92AF92BF92CF92DF92EF92FF928C
:100CA0000F931F93CF93DF93CDB7DEB728970FB67F
:100CB000F894DEBF0FBECDBF6C017B0183569F4F02
:100CC0009E838D83FC0180818D3020F4C12CD12C3A
:100CD000760178C081E090E09C838B831A82198230
:100CE0004E01F3E08F0E911C09E713E0AA24A394B0
:100CF000B12CAC0EBD1E9501A401C6010E943405A5
:100D0000892B21F79501A401B701C6010E94340582
:100D10000197E1F69501A401B701C6010E943405CF
:100D2000892BA1F6212C312C412C512C32018F82A0
:100D300098869A2C8B2C2EC009E713E0292D382D8C
:100D40004F815885B701C6010E9434055C01292DE9
:100D5000382D4F815885B701C6010E94340521E026
:100D6000A216B10451F4892B09F0B0CF440C551CE4
:100D7000661C771C689440F80AC0AB2809F0A6CF1F
:100D8000019709F0A3CF440C551C661C771C8FEF0C
:100D9000281A380AED81FE81808190E02B813C8108
:100DA000281739074CF2F701378226824282538294
:100DB0006482758283E090E091838083C12CD12C82
:100DC0007601C394B601C70128960FB6F894DEBF2A
:100DD0000FBECDBFDF91CF911F910F91FF90EF908C
:100DE000DF90CF90BF90AF909F908F907F906F904B
:100DF0005F904F903F902F9008952F923F924F9287
:100E00005F926F927F928F929F92AF92BF92CF929A
:100E1000DF92EF92FF920F931F93CF93DF93CDB7A3
:100E2000DEB728970FB6F894DEBF0FBECDBF6C01BA
:100E30007B01DB011A968D919C911B971816190660
:100E400024F0C12CD12C7601C0C081E090E09C83BD
:100E50008B83DB011896ED91FC9119978281938128
:100E6000449778F382819381849758F789C084816D
:100E700095810B9730F78EC00CEB11E09301A40124
:100E8000B701C6010E9434050197D9F6A12CB12CF7
:100E9000212C312C21018D829E826F82788658C050
:100EA0000CEB11E02F8138854D815E81B701C601C1
:100EB0000E9434053C01B3E0AB16B10481F00CEBA9
:100EC00011E02F8138854D815E81B701C6010E94F6
:100ED00034054C01E3E0AE16B10479F412C00CEB1A
:100EE00011E02F8138854D815E81B701C6010E94D6
:100EF00034056816790619F3A4CF6114710479F0EA
:100F000019C00CEB11E02F8138854D815E81B7014E
:100F1000C6010E9434058816990679F392CF8A9407
:100F2000892809F08ECF220C331C441C551C689470
:100F300020F80BC06A94672809F083CF892809F04C
:100F400080CF220C331C441C551CAFEFAA1ABA0ADE
:100F50002B813C81F70182859385281739070CF492
:100F60009FCFB782A682228233824482558284E058
:100F700090E091838083C12CD12C7601C39425C04D
:100F800082E090E09C838B8384819581059708F4AF
:100F900058CF6DCF83E090E09C838B831A821982B7
:100FA0004E01B3E08B0E911C0CEB11E066246394B0
:100FB000712C6C0E7D1E9301A401B701C6010E9425
:100FC0003405892B09F03DCF57CFB601C7012896CC
:100FD0000FB6F894DEBF0FBECDBFDF91CF911F914A
:100FE0000F91FF90EF90DF90CF90BF90AF909F90C8
:100FF0008F907F906F905F904F903F902F900895CB
:10100000EF92FF920F931F93CF93DF938C01EB012D
:1010100005969987888778018DE9E80EF11CF7011C
:1010200080818A871B86F80181818530B1F5C801EE
:101030000E940604672B682B692B09F026C0BE01AD
:10104000C8010E94AF04672B682B692BF1F4BE0125
:10105000C8010E944206672B682B692BB1F4BE01C0
:10106000C8010E94FD06672B682B692B71F48A85E5
:101070009B8506976CF08FEF9FEF998388831F8283
:101080001E821A821B821C821D8221E030E007C072
:1010900082E0F8018183F701108220E030E0C9018D
:1010A000DF91CF911F910F91FF90EF9008958CECFD
:1010B00093E00C94F5018CEC93E00C940D028330DA
:1010C00069F028F48130A1F0823011F514C0863027
:1010D000B1F08730C1F08430D9F404C08091800031
:1010E0008F7703C0809180008F7D8093800008956A
:1010F00084B58F7702C084B58F7D84BD08958091BB
:10110000B0008F7703C08091B0008F7D8093B000D6
:101110000895CF93DF9390E0FC01E458FF4F449192
:10112000FC01E057FF4F8491882341F190E0880F44
:10113000991FFC01E854FF4F25913491D901825544
:101140009F4FFC0185919491C82FD92F9FB7F89498
:101150008C91611106C0409584238C9388818423EF
:1011600008C0623041F4242F209582238C9388811B
:10117000842B888302C0842B8C939FBFDF91CF91F7
:1011800008950F931F93CF93DF931F92CDB7DEB7D0
:10119000282F30E0F901E859FF4F8491F901E45814
:1011A000FF4F1491F901E057FF4F04910023D1F054
:1011B000882321F069830E945F086981E02FF0E0B5
:1011C000EE0FFF1FE255FF4F85919491DC019FB711
:1011D000F8948C91611103C01095812301C0812B7B
:1011E0008C939FBF0F90DF91CF911F910F91089526
:1011F000CF93DF93282F30E0F901E859FF4F849116
:10120000F901E458FF4FD491F901E057FF4FC49121
:10121000CC2389F081110E945F08EC2FF0E0EE0FE3
:10122000FF1FEC55FF4F85919491DC018C918D232C
:1012300021E030E011F420E030E0C901DF91CF91EE
:1012400008951F920F920FB60F9211242F933F9380
:101250008F939F93AF93BF938091D2039091D303C9
:10126000A091D403B091D5033091DA03232F2D5FE1
:101270002D3720F40196A11DB11D05C0232F2A573B
:101280000296A11DB11D2093DA038093D20390939F
:10129000D303A093D403B093D5038091D603909148
:1012A000D703A091D803B091D9030196A11DB11D18
:1012B0008093D6039093D703A093D803B093D90318
:1012C000BF91AF919F918F913F912F910F900FBE42
:1012D0000F901F9018950F931F938FB7F89400915C
:1012E000D2031091D3032091D4033091D5038FBF43
:1012F000B801C9011F910F910895789484B5826057
:1013000084BD84B5816084BD85B5826085BD85B5A9
:10131000816085BDEEE6F0E0808181608083E1E858
:10132000F0E0108280818260808380818160808390
:10133000E0E8F0E0808181608083E1EBF0E0808193
:1013400084608083E0EBF0E0808181608083EAE765
:10135000F0E08081846080838081826080838081EE
:10136000816080838081806880831092C1000895AD
:101370000E947D090E949F00C0E0D0E00E942301EE
:101380002097E1F30E940000F9CF5058BB27AA270D
:101390000ED04DC13ED130F043D120F031F49F3F0B
:1013A00011F41EF433C10EF4E095E7FB29C1E92FD7
:1013B0004FD180F3BA17620773078407950718F0B7
:1013C00071F49EF567C10EF4E0950B2EBA2FA02D97
:1013D0000B01B90190010C01CA01A0011124FF27E2
:1013E000591B99F0593F50F4503E68F11A16F040DD
:1013F000A22F232F342F4427585FF3CF46953795DC
:101400002795A795F0405395C9F77EF41F16BA0BA0
:10141000620B730B840BBAF09150A1F0FF0FBB1F4E
:10142000661F771F881FC2F70EC0BA0F621F731F97
:10143000841F48F4879577956795B795F7959E3FF4
:1014400008F0B3CF9395880F08F09927EE0F979582
:10145000879508950CD0EBC0E3D040F0DAD030F09F
:1014600021F45F3F19F0CCC0511115C1CFC0F0D0AD
:1014700098F39923C9F35523B1F3951B550BBB275B
:10148000AA2762177307840738F09F5F5F4F220F08
:10149000331F441FAA1FA9F333D00E2E3AF0E0E801
:1014A00030D091505040E695001CCAF729D0FE2F4D
:1014B00027D0660F771F881FBB1F261737074807DF
:1014C000AB07B0E809F0BB0B802DBF01FF27935895
:1014D0005F4F2AF09E3F510568F092C0DCC05F3F2D
:1014E000ECF3983EDCF3869577956795B795F7957D
:1014F0009F5FC9F7880F911D9695879597F9089575
:10150000E1E0660F771F881FBB1F62177307840710
:10151000BA0720F0621B730B840BBA0BEE1F88F71F
:10152000E095089504D06894B111B5C0089598D09D
:1015300088F09F5790F0B92F9927B751A0F0D1F0BC
:10154000660F771F881F991F1AF0BA95C9F712C046
:10155000B13081F09FD0B1E008959CC0672F782F03
:101560008827B85F39F0B93FCCF3869577956795B2
:10157000B395D9F73EF490958095709561957F4F1E
:101580008F4F9F4F0895E89409C097FB3EF49095C4
:101590008095709561957F4F8F4F9F4F9923A9F04C
:1015A000F92F96E9BB279395F695879577956795DB
:1015B000B795F111F8CFFAF4BB0F11F460FF1BC01F
:1015C0006F5F7F4F8F4F9F4F16C0882311F096E9B2
:1015D00011C0772321F09EE8872F762F05C0662360
:1015E00071F096E8862F70E060E02AF09A95660F19
:1015F000771F881FDAF7880F9695879597F90895D2
:1016000097F99F6780E870E060E008959FEF80ECB5
:10161000089500240A941616170618060906089558
:1016200000240A9412161306140605060895092EBE
:101630000394000C11F4882352F0BB0F40F4BF2B2D
:1016400011F460FF04C06F5F7F4F8F4F9F4F08956D
:1016500057FD9058440F551F59F05F3F71F0479563
:10166000880F97FB991F61F09F3F79F08795089548
:10167000121613061406551FF2CF4695F1DF08C067
:10168000161617061806991FF1CF86957105610584
:1016900008940895E894BB2766277727CB0197F92C
:1016A00008950BD0C4CFB5DF28F0BADF18F095232A
:1016B00009F0A6CFABCF1124EECFCADFA0F3959FE0
:1016C000D1F3950F50E0551F629FF001729FBB2729
:1016D000F00DB11D639FAA27F00DB11DAA1F649FD5
:1016E0006627B00DA11D661F829F2227B00DA11D88
:1016F000621F739FB00DA11D621F839FA00D611D0E
:10170000221F749F3327A00D611D231F849F600D2E
:10171000211D822F762F6A2F11249F5750408AF067
:10172000E1F088234AF0EE0FFF1FBB1F661F771FF3
:10173000881F91505040A9F79E3F510570F060CF2F
:10174000AACF5F3FECF3983EDCF3869577956795DB
:10175000B795F795E7959F5FC1F7FE2B880F911D11
:101760009695879597F90895EE0FFF1F0590F491D0
:10177000E02D09940F931F93CF93DF93823091054F
:1017800010F482E090E0E091DD03F091DE0320E0D0
:1017900030E0C0E0D0E023C04081518148175907B4
:1017A000A8F04817590761F482819381209719F0B6
:1017B0009B838A832EC09093DE038093DD0329C030
:1017C0002115310529F04217530710F0A90102C075
:1017D000BE01DF0102811381EF019A01F801309708
:1017E000D9F62115310509F1281B390B24303105B3
:1017F00090F412968D919C9113976115710521F0CB
:10180000FB019383828304C09093DE038093DD0306
:10181000FD01329644C0FD01E20FF31F81939193C5
:10182000225031092D933C933AC02091DB03309133
:10183000DC03232B41F4209102013091030130930A
:10184000DC032093DB03209100013091010121157D
:10185000310541F42DB73EB7409104015091050187
:10186000241B350BE091DB03F091DC03E217F30757
:10187000A0F42E1B3F0B2817390778F0AC014E5F00
:101880005F4F2417350748F04E0F5F1F5093DC035E
:101890004093DB038193919302C0E0E0F0E0CF013D
:1018A000DF91CF911F910F910895EF92FF920F93C7
:1018B0001F93CF93DF93009709F48EC0DC0112973A
:1018C00013961C921E921297E090DD03F090DE03B7
:1018D000E114F10489F42D913C911197280F391FDF
:1018E0008091DB039091DC038217930789F5B09315
:1018F000DC03A093DB0370C0E70120E030E001C00F
:10190000EA01CA17DB0738F44A815B819E01411561
:101910005105B1F722C0AC0142505109FA01D383FD
:10192000C28300811181BC01600F711F6C177D079C
:1019300061F468817981600F711F6E5F7F4F7183E1
:1019400060836A817B81738362832115310529F469
:10195000B093DE03A093DD033FC0F901B383A283FC
:10196000E90149915991C40FD51FAC17BD0771F416
:10197000DC019E918E91840F951F02969183808346
:1019800012968D919C91139793838283A0E0B0E08F
:1019900002C0D7017C01F701828193810097C9F7CA
:1019A000C701029620813181820F931F2091DB03B2
:1019B0003091DC032817390779F4109729F4109235
:1019C000DE031092DD0304C013961C921E92129740
:1019D000F092DC03E092DB03CDB7DEB7E6E00C94D7
:1019E0000D0DFB01DC0102C001900D9241505040F1
:1019F000D8F70895DC0101C06D9341505040E0F7E5
:101A000008952A88398848885F846E847D848C8410
:101A10009B84AA84B984C884DF80EE80FD800C8119
:101A20001B81AA81B981CE0FD11D0FB6F894DEBFFC
:101A30000FBECDBFED01089510E0C6ECD0E004C0AC
:101A4000FE010E94B60B2296CA3CD107C9F7F89452
:021A5000FFCFC6
:061A52000000DF0320008C
:00000001FF
