:100000000C945C000C9479000C9479000C947900A9
:100010000C9479000C9479000C9479000C9479007C
:100020000C9479000C9479000C9479000C9479006C
:100030000C9479000C9479000C9479000C9479005C
:100040000C946E010C9479000C9479000C94790056
:100050000C9479000C9479000C9479000C9479003C
:100060000C9479000C947900000000070002010054
:100070000003040600000000000000000102040864
:100080001020408001020408102001020408102002
:10009000040404040404040402020202020203032E
:1000A0000303030300000000250028002B000000CC
:1000B0000000240027002A0011241FBECFEFD8E043
:1000C000DEBFCDBF11E0A0E0B1E0E6E6F5E002C0A2
:1000D00005900D92A830B107D9F711E0A8E0B1E082
:1000E00001C01D92A331B107E1F70E94A4020C9454
:1000F000B1020C94000060E0809106010E94FF00B4
:1001000061E0809104010C94FF00CF93DF93C0E085
:10011000D0E014C0D0930901C0930801BE018091C2
:1001200004010E944302609100017091010188273F
:1001300077FD8095982F0E94E2012196809102011F
:1001400090910301C817D9072CF3609108018091A1
:1001500004010E94370160E177E280E090E00E94B4
:10016000E201C0910201D091030114C0D0930901B2
:10017000C0930801BE01809104010E944302609176
:10018000000170910101882777FD8095982F0E94CA
:10019000E20121971C161D064CF364E670E080E036
:1001A00090E0DF91CF910C94E201833069F028F464
:1001B0008130A1F0823011F514C08630B1F0873063
:1001C000C1F08430D9F404C0809180008F7703C0DF
:1001D000809180008F7D80938000089584B58F7713
:1001E00002C084B58F7D84BD08958091B0008F7763
:1001F00003C08091B0008F7D8093B0000895CF93AD
:10020000DF9390E0FC01E458FF4F4491FC01E0577C
:10021000FF4F8491882341F190E0880F991FFC01E2
:10022000E255FF4F25913491D9018C559F4FFC0128
:1002300085919491C82FD92F9FB7F8948C91611113
:1002400006C0409584238C938881842308C0623043
:1002500041F4242F209582238C938881842B8883DA
:1002600002C0842B8C939FBFDF91CF9108950F9391
:100270001F93CF93DF931F92CDB7DEB7282F30E0C7
:10028000F901E859FF4F8491F901E458FF4F1491A7
:10029000F901E057FF4F04910023D1F0882321F0AA
:1002A00069830E94D5006981E02FF0E0EE0FFF1F07
:1002B000EC55FF4F85919491DC019FB7F8948C9198
:1002C000611103C01095812301C0812B8C939FBFC6
:1002D0000F90DF91CF911F910F9108951F920F9270
:1002E0000FB60F9211242F933F938F939F93AF9349
:1002F000BF9380910A0190910B01A0910C01B091E4
:100300000D0130911201232F2D5F2D3720F401961E
:10031000A11DB11D05C0232F2A570296A11DB11D95
:100320002093120180930A0190930B01A0930C017A
:10033000B0930D0180910E0190910F01A0911001D9
:10034000B09111010196A11DB11D80930E019093F2
:100350000F01A0931001B0931101BF91AF919F9134
:100360008F913F912F910F900FBE0F901F90189576
:100370000F931F939FB7F89400910E0110910F01F6
:10038000209110013091110186B5A89B06C08F3FC6
:1003900021F00F5F1F4F2F4F3F4F9FBF322F212F55
:1003A000102F0027080F111D211D311D42E0000FE5
:1003B000111F221F331F4A95D1F7B801C9011F91A0
:1003C0000F910895CF92DF92EF92FF92CF93DF9338
:1003D0006B017C010E94B801EB010EC00E94B801C4
:1003E0006C1B7D0B683E734038F081E0C81AD10861
:1003F000E108F108C851DC4FC114D104E104F10453
:1004000069F7DF91CF91FF90EF90DF90CF90089543
:10041000789484B5826084BD84B5816084BD85B5DF
:10042000826085BD85B5816085BDEEE6F0E08081A6
:1004300081608083E1E8F0E01082808182608083C7
:10044000808181608083E0E8F0E08081816080834A
:10045000E1EBF0E0808184608083E0EBF0E080817C
:1004600081608083EAE7F0E080818460808380811E
:1004700082608083808181608083808180688083C6
:100480001092C10008951F93CF93DF93182FEB01B3
:1004900061E00E94FF00209711F460E004C0CF3FAC
:1004A000D10539F461E0812FDF91CF911F910C9438
:1004B0003701E12FF0E0E859FF4FE491E330B9F064
:1004C00028F4E13051F0E230B1F50CC0E63019F11A
:1004D000E73049F1E43079F514C084B5806884BD13
:1004E000C7BD2EC084B5806284BDC8BD29C08091BF
:1004F0008000806880938000D0938900C09388003A
:100500001FC080918000806280938000D0938B0018
:10051000C0938A0015C08091B00080688093B000BD
:10052000C093B3000DC08091B00080628093B00092
:10053000C093B40005C0C038D1050CF0B3CFADCF27
:10054000DF91CF911F9108950E9408020E947B00C5
:10055000C0E0D0E00E9485002097E1F30E940000F7
:06056000F9CFF894FFCF73
:080566002800FF00090002005B
:00000001FF
