:100000000C9463000C948B000C948B000C948B006C
:100010000C948B000C948B000C948B000C948B0034
:100020000C948B000C94D0010C948B000C948B00DE
:100030000C948B000C948B000C948B000C948B0014
:100040000C94DA020C948B000C948B000C948B00B3
:100050000C948B000C948B000C948B000C948B00F4
:100060000C948B000C948B00000000070002010030
:100070000003040600000000000000000102040864
:100080001020408001020408102001020408102002
:10009000040404040404040402020202020203032E
:1000A00003030303000000002300260029000000D2
:1000B0000000250028002B0000000000240027007D
:1000C0002A001002140211241FBECFEFD8E0DEBFB9
:1000D000CDBF11E0A6E0B1E001C01D92AA31B10789
:1000E000E1F711E0A0E0B1E0E2EDFAE002C0059036
:1000F0000D92A630B107D9F710E0C4ECD0E004C0EF
:100100002297FE010E940604C23CD107C9F70E9453
:10011000B9030C945C050C9400000895CF93DF9311
:10012000C3E0D0E020E230E04AED5EEB6FEF7FEF1E
:1001300086E091E00E941F0168E270E080E090E0BC
:100140000E944E03219771F7DF91CF910895CF93CD
:10015000DF93EC011982188284E090E09B838A830C
:1001600088E090E00E940A048C839D83FC0188E073
:10017000DF011D928A95E9F7DF91CF910895FC0187
:10018000848195810C94A504FC018081918108955E
:1001900077FD12C0DC012D913C9111976217730716
:1001A0005CF4660F771F1496ED91FC911597E60F9E
:1001B000F71F2081318102C020E030E0C90108959D
:1001C000CB01E0EBF0E02081206220830C947403EB
:1001D000CB01E0EBF0E020812F7D20830C947403B1
:1001E000CF93DF93EB01E0E7F0E080818E7F8083A7
:1001F00061E083E00E94420260E083E00E947A02B4
:1002000081E08093B00089E08093B1009E01442793
:1002100037FD4095542F60E47FE180E090E00E943C
:10022000C603E3EBF0E0208390818BEA989F812D59
:10023000112486958093B400DF91CF910895AF92F9
:10024000BF92CF92DF92EF92FF920F931F93CF93C3
:10025000DF93EC016A017B01590166E270E00E94C4
:10026000F00068E273E2CE010E94E00064E971E10F
:10027000CE010E94E80000E010E014C0F7FE05C0C7
:100280000E94E00060E476E004C00E94E00060E3C9
:1002900072E0CE010E94E800CC0CDD1CEE1CFF1CBD
:1002A0000F5F1F4F60E372E0CE010A151B0534F3A8
:1002B0000E94E00060E070E0CE01DF91CF911F91DD
:1002C0000F91FF90EF90DF90CF90BF90AF900C9484
:1002D000E800CF93DF93EC0188810E94B1022B816B
:1002E0003C812F5F3F4F3C832B83FE01E356FF4F42
:1002F00090819C3410F045E0498349814330B9F046
:1003000020F4423009F041C005C0443011F14530BD
:10031000E1F537C0811139C02233310508F433C00B
:100320003E832D83FE01E356FF4F91E01FC08130D5
:1003300061F5FE01E90FF11DE90FF11D36832583FB
:10034000FE01E356FF4F9F5F90831C821B8294E067
:1003500016C0811110C0FE01E90FF11DE90FF11D5A
:1003600036832583FE01E356FF4F9F5F90831C82F7
:100370001B8293E004C02333310538F095E0998364
:1003800004C0811102C01C821B829A81992329F02A
:10039000811102C02D9A01C02D98DF91CF9108954F
:1003A0001F920F920FB60F9211240F931F932F934A
:1003B0003F934F935F936F937F938F939F93AF93ED
:1003C000BF93CF93DF93EF93FF938DE38093B200BE
:1003D00087E091E00E94C4008C01C0E0D0E008C03A
:1003E000BE0187E091E00E94C8000E946901219649
:1003F000C017D107ACF3FF91EF91DF91CF91BF917F
:10040000AF919F918F917F916F915F914F913F91AC
:100410002F911F910F910F900FBE0F901F90189565
:1004200087E091E00C94A70087E091E00C94BF0076
:10043000833069F028F48130A1F0823011F514C0C6
:100440008630B1F08730C1F08430D9F404C0809197
:1004500080008F7703C0809180008F7D8093800023
:10046000089584B58F7702C084B58F7D84BD0895CB
:100470008091B0008F7703C08091B0008F7D809312
:10048000B0000895CF93DF9390E0FC01E458FF4F54
:100490004491FC01E057FF4F8491882341F190E0A3
:1004A000880F991FFC01E854FF4F25913491D90121
:1004B00082559F4FFC0185919491C82FD92F9FB7EA
:1004C000F8948C91611106C0409584238C938881A7
:1004D000842308C0623041F4242F209582238C931A
:1004E0008881842B888302C0842B8C939FBFDF91EB
:1004F000CF9108950F931F93CF93DF931F92CDB7A2
:10050000DEB7282F30E0F901E859FF4F8491F90157
:10051000E458FF4F1491F901E057FF4F0491002375
:10052000D1F0882321F069830E9418026981E02FAD
:10053000F0E0EE0FFF1FE255FF4F85919491DC0133
:100540009FB7F8948C91611103C01095812301C06D
:10055000812B8C939FBF0F90DF91CF911F910F91B3
:100560000895CF93DF93282F30E0F901E859FF4F2A
:100570008491F901E458FF4FD491F901E057FF4FFE
:10058000C491CC2389F081110E941802EC2FF0E075
:10059000EE0FFF1FEC55FF4F85919491DC018C917C
:1005A0008D2321E030E011F420E030E0C901DF913B
:1005B000CF9108951F920F920FB60F9211242F938F
:1005C0003F938F939F93AF93BF9380910D01909131
:1005D0000E01A0910F01B091100130911501232F50
:1005E0002D5F2D3720F40196A11DB11D05C0232FCD
:1005F0002A570296A11DB11D2093150180930D016C
:1006000090930E01A0930F01B093100180911101FE
:1006100090911201A0911301B09114010196A11DB6
:10062000B11D8093110190931201A0931301B09317
:100630001401BF91AF919F918F913F912F910F9096
:100640000FBE0F901F9018950F931F939FB7F894AC
:1006500000911101109112012091130130911401A8
:1006600086B5A89B06C08F3F21F00F5F1F4F2F4F0D
:100670003F4F9FBF322F212F102F0027080F111D32
:10068000211D311D42E0000F111F221F331F4A950B
:10069000D1F7B801C9011F910F910895CF92DF9250
:1006A000EF92FF92CF93DF936B017C010E942403B2
:1006B000EB010EC00E9424036C1B7D0B683E73404F
:1006C00038F081E0C81AD108E108F108C851DC4FC0
:1006D000C114D104E104F10469F7DF91CF91FF90D7
:1006E000EF90DF90CF900895019739F0880F991F10
:1006F000880F991F02970197F1F70895789484B5B0
:10070000826084BD84B5816084BD85B5826085BD0D
:1007100085B5816085BDEEE6F0E0808181608083F3
:10072000E1E8F0E0108280818260808380818160D6
:100730008083E0E8F0E0808181608083E1EBF0E09D
:10074000808184608083E0EBF0E080818160808341
:10075000EAE7F0E08081846080838081826080832A
:100760008081816080838081806880831092C10055
:1007700008950E947E030E948D00C0E0D0E00E9498
:100780008E002097E1F30E940000F9CF052E97FB21
:1007900016F4009407D057FD0DD00E94E20307FC29
:1007A00009D07EF490958095709561957F4F8F4F1D
:1007B0009F4F089550954095309521953F4F4F4F4D
:1007C0005F4F0895A1E21A2EAA1BBB1BFD010DC0AD
:1007D000AA1FBB1FEE1FFF1FA217B307E407F507F1
:1007E00020F0A21BB30BE40BF50B661F771F881FCD
:1007F000991F1A9469F760957095809590959B0163
:10080000AC01BD01CF010895EE0FFF1F0590F491DB
:10081000E02D09940F931F93CF93DF9382309105BE
:1008200010F482E090E0E0911801F091190120E0CD
:1008300030E0C0E0D0E023C0408151814817590723
:10084000A8F04817590761F482819381209719F025
:100850009B838A832EC0909319018093180129C02D
:100860002115310529F04217530710F0A90102C0E4
:10087000BE01DF0102811381EF019A01F801309777
:10088000D9F62115310509F1281B390B2430310522
:1008900090F412968D919C9113976115710521F03A
:1008A000FB019383828304C0909319018093180104
:1008B000FD01329644C0FD01E20FF31F8193919335
:1008C000225031092D933C933AC02091160130916A
:1008D0001701232B41F42091020130910301309341
:1008E000170120931601209100013091010121157B
:1008F000310541F42DB73EB74091040150910501F7
:10090000241B350BE0911601F0911701E217F30754
:10091000A0F42E1B3F0B2817390778F0AC014E5F6F
:100920005F4F2417350748F04E0F5F1F5093170194
:10093000409316018193919302C0E0E0F0E0CF0173
:10094000DF91CF911F910F910895EF92FF920F9336
:100950001F93CF93DF93009709F48EC0DC011297A9
:1009600013961C921E921297E0901801F0901901B4
:10097000E114F10489F42D913C911197280F391F4E
:1009800080911601909117018217930789F5B09312
:100990001701A093160170C0E70120E030E001C00C
:1009A000EA01CA17DB0738F44A815B819E014115D1
:1009B0005105B1F722C0AC0142505109FA01D3836D
:1009C000C28300811181BC01600F711F6C177D070C
:1009D00061F468817981600F711F6E5F7F4F718351
:1009E00060836A817B81738362832115310529F4D9
:1009F000B0931901A09318013FC0F901B383A283FA
:100A0000E90149915991C40FD51FAC17BD0771F485
:100A1000DC019E918E91840F951F029691838083B5
:100A200012968D919C91139793838283A0E0B0E0FE
:100A300002C0D7017C01F701828193810097C9F739
:100A4000C701029620813181820F931F20911601E8
:100A5000309117012817390779F4109729F410926B
:100A600019011092180104C013961C921E9212973D
:100A7000F0921701E0921601CDB7DEB7E6E00C94D4
:100A80004D052A88398848885F846E847D848C84EB
:100A90009B84AA84B984C884DF80EE80FD800C81A9
:100AA0001B81AA81B981CE0FD11D0FB6F894DEBF8C
:100AB0000FBECDBFED01089510E0C4ECD0E004C03E
:100AC000FE010E9406042296C63CD107C9F7F8949D
:020AD000FFCF56
:060AD20000001A012000E3
:00000001FF
